{
	"DepositFunds.sol": {
		"DepositFunds": {
			"abi": [
				{
					"inputs": [
						{
							"internalType": "address",
							"name": "",
							"type": "address"
						}
					],
					"name": "balances",
					"outputs": [
						{
							"internalType": "uint256",
							"name": "",
							"type": "uint256"
						}
					],
					"stateMutability": "view",
					"type": "function"
				},
				{
					"inputs": [],
					"name": "deposit",
					"outputs": [],
					"stateMutability": "payable",
					"type": "function"
				},
				{
					"inputs": [],
					"name": "getBalance",
					"outputs": [
						{
							"internalType": "uint256",
							"name": "",
							"type": "uint256"
						}
					],
					"stateMutability": "view",
					"type": "function"
				},
				{
					"inputs": [],
					"name": "withdraw",
					"outputs": [],
					"stateMutability": "nonpayable",
					"type": "function"
				}
			],
			"devdoc": {
				"kind": "dev",
				"methods": {},
				"version": 1
			},
			"evm": {
				"assembly": "    /* \"DepositFunds.sol\":127:841  contract DepositFunds {... */\n  mstore(0x40, 0x80)\n  callvalue\n  dup1\n  iszero\n  tag_1\n  jumpi\n  0x00\n  dup1\n  revert\ntag_1:\n  pop\n  dataSize(sub_0)\n  dup1\n  dataOffset(sub_0)\n  0x00\n  codecopy\n  0x00\n  return\nstop\n\nsub_0: assembly {\n        /* \"DepositFunds.sol\":127:841  contract DepositFunds {... */\n      mstore(0x40, 0x80)\n      jumpi(tag_1, lt(calldatasize, 0x04))\n      shr(0xe0, calldataload(0x00))\n      dup1\n      0x12065fe0\n      eq\n      tag_2\n      jumpi\n      dup1\n      0x27e235e3\n      eq\n      tag_3\n      jumpi\n      dup1\n      0x3ccfd60b\n      eq\n      tag_4\n      jumpi\n      dup1\n      0xd0e30db0\n      eq\n      tag_5\n      jumpi\n    tag_1:\n      0x00\n      dup1\n      revert\n        /* \"DepositFunds.sol\":735:836  function getBalance() external view returns (uint256) {... */\n    tag_2:\n      callvalue\n      dup1\n      iszero\n      tag_6\n      jumpi\n      0x00\n      dup1\n      revert\n    tag_6:\n      pop\n      tag_7\n      tag_8\n      jump\t// in\n    tag_7:\n      mload(0x40)\n      tag_9\n      swap2\n      swap1\n      tag_10\n      jump\t// in\n    tag_9:\n      mload(0x40)\n      dup1\n      swap2\n      sub\n      swap1\n      return\n        /* \"DepositFunds.sol\":156:196  mapping(address => uint) public balances */\n    tag_3:\n      callvalue\n      dup1\n      iszero\n      tag_11\n      jumpi\n      0x00\n      dup1\n      revert\n    tag_11:\n      pop\n      tag_12\n      0x04\n      dup1\n      calldatasize\n      sub\n      dup2\n      add\n      swap1\n      tag_13\n      swap2\n      swap1\n      tag_14\n      jump\t// in\n    tag_13:\n      tag_15\n      jump\t// in\n    tag_12:\n      mload(0x40)\n      tag_16\n      swap2\n      swap1\n      tag_10\n      jump\t// in\n    tag_16:\n      mload(0x40)\n      dup1\n      swap2\n      sub\n      swap1\n      return\n        /* \"DepositFunds.sol\":471:727  function withdraw() public noReentrant{... */\n    tag_4:\n      callvalue\n      dup1\n      iszero\n      tag_17\n      jumpi\n      0x00\n      dup1\n      revert\n    tag_17:\n      pop\n      tag_18\n      tag_19\n      jump\t// in\n    tag_18:\n      stop\n        /* \"DepositFunds.sol\":377:463  function deposit() public payable {... */\n    tag_5:\n      tag_20\n      tag_21\n      jump\t// in\n    tag_20:\n      stop\n        /* \"DepositFunds.sol\":735:836  function getBalance() external view returns (uint256) {... */\n    tag_8:\n        /* \"DepositFunds.sol\":780:787  uint256 */\n      0x00\n        /* \"DepositFunds.sol\":807:828  address(this).balance */\n      selfbalance\n        /* \"DepositFunds.sol\":800:828  return address(this).balance */\n      swap1\n      pop\n        /* \"DepositFunds.sol\":735:836  function getBalance() external view returns (uint256) {... */\n      swap1\n      jump\t// out\n        /* \"DepositFunds.sol\":156:196  mapping(address => uint) public balances */\n    tag_15:\n      mstore(0x20, 0x00)\n      dup1\n      0x00\n      mstore\n      keccak256(0x00, 0x40)\n      0x00\n      swap2\n      pop\n      swap1\n      pop\n      sload\n      dup2\n      jump\t// out\n        /* \"DepositFunds.sol\":471:727  function withdraw() public noReentrant{... */\n    tag_19:\n        /* \"DepositFunds.sol\":275:281  locked */\n      0x01\n      0x00\n      swap1\n      sload\n      swap1\n      0x0100\n      exp\n      swap1\n      div\n      0xff\n      and\n        /* \"DepositFunds.sol\":274:281  !locked */\n      iszero\n        /* \"DepositFunds.sol\":266:300  require(!locked, \"No re-entrancy\") */\n      tag_24\n      jumpi\n      mload(0x40)\n      0x08c379a000000000000000000000000000000000000000000000000000000000\n      dup2\n      mstore\n      0x04\n      add\n      tag_25\n      swap1\n      tag_26\n      jump\t// in\n    tag_25:\n      mload(0x40)\n      dup1\n      swap2\n      sub\n      swap1\n      revert\n    tag_24:\n        /* \"DepositFunds.sol\":320:324  true */\n      0x01\n        /* \"DepositFunds.sol\":311:317  locked */\n      dup1\n      0x00\n        /* \"DepositFunds.sol\":311:324  locked = true */\n      0x0100\n      exp\n      dup2\n      sload\n      dup2\n      0xff\n      mul\n      not\n      and\n      swap1\n      dup4\n      iszero\n      iszero\n      mul\n      or\n      swap1\n      sstore\n      pop\n        /* \"DepositFunds.sol\":520:528  uint bal */\n      0x00\n        /* \"DepositFunds.sol\":531:539  balances */\n      dup1\n        /* \"DepositFunds.sol\":531:551  balances[msg.sender] */\n      0x00\n        /* \"DepositFunds.sol\":540:550  msg.sender */\n      caller\n        /* \"DepositFunds.sol\":531:551  balances[msg.sender] */\n      0xffffffffffffffffffffffffffffffffffffffff\n      and\n      0xffffffffffffffffffffffffffffffffffffffff\n      and\n      dup2\n      mstore\n      0x20\n      add\n      swap1\n      dup2\n      mstore\n      0x20\n      add\n      0x00\n      keccak256\n      sload\n        /* \"DepositFunds.sol\":520:551  uint bal = balances[msg.sender] */\n      swap1\n      pop\n        /* \"DepositFunds.sol\":576:577  0 */\n      0x00\n        /* \"DepositFunds.sol\":570:573  bal */\n      dup2\n        /* \"DepositFunds.sol\":570:577  bal > 0 */\n      gt\n        /* \"DepositFunds.sol\":562:578  require(bal > 0) */\n      tag_28\n      jumpi\n      0x00\n      dup1\n      revert\n    tag_28:\n        /* \"DepositFunds.sol\":590:599  bool sent */\n      0x00\n        /* \"DepositFunds.sol\":605:615  msg.sender */\n      caller\n        /* \"DepositFunds.sol\":605:620  msg.sender.call */\n      0xffffffffffffffffffffffffffffffffffffffff\n      and\n        /* \"DepositFunds.sol\":628:631  bal */\n      dup3\n        /* \"DepositFunds.sol\":605:636  msg.sender.call{value: bal}(\"\") */\n      mload(0x40)\n      tag_29\n      swap1\n      tag_30\n      jump\t// in\n    tag_29:\n      0x00\n      mload(0x40)\n      dup1\n      dup4\n      sub\n      dup2\n      dup6\n      dup8\n      gas\n      call\n      swap3\n      pop\n      pop\n      pop\n      returndatasize\n      dup1\n      0x00\n      dup2\n      eq\n      tag_33\n      jumpi\n      mload(0x40)\n      swap2\n      pop\n      and(add(returndatasize, 0x3f), not(0x1f))\n      dup3\n      add\n      0x40\n      mstore\n      returndatasize\n      dup3\n      mstore\n      returndatasize\n      0x00\n      0x20\n      dup5\n      add\n      returndatacopy\n      jump(tag_32)\n    tag_33:\n      0x60\n      swap2\n      pop\n    tag_32:\n      pop\n        /* \"DepositFunds.sol\":589:636  (bool sent, ) = msg.sender.call{value: bal}(\"\") */\n      pop\n      swap1\n      pop\n        /* \"DepositFunds.sol\":655:659  sent */\n      dup1\n        /* \"DepositFunds.sol\":647:684  require(sent, \"Failed to send Ether\") */\n      tag_34\n      jumpi\n      mload(0x40)\n      0x08c379a000000000000000000000000000000000000000000000000000000000\n      dup2\n      mstore\n      0x04\n      add\n      tag_35\n      swap1\n      tag_36\n      jump\t// in\n    tag_35:\n      mload(0x40)\n      dup1\n      swap2\n      sub\n      swap1\n      revert\n    tag_34:\n        /* \"DepositFunds.sol\":718:719  0 */\n      0x00\n        /* \"DepositFunds.sol\":695:703  balances */\n      dup1\n        /* \"DepositFunds.sol\":695:715  balances[msg.sender] */\n      0x00\n        /* \"DepositFunds.sol\":704:714  msg.sender */\n      caller\n        /* \"DepositFunds.sol\":695:715  balances[msg.sender] */\n      0xffffffffffffffffffffffffffffffffffffffff\n      and\n      0xffffffffffffffffffffffffffffffffffffffff\n      and\n      dup2\n      mstore\n      0x20\n      add\n      swap1\n      dup2\n      mstore\n      0x20\n      add\n      0x00\n      keccak256\n        /* \"DepositFunds.sol\":695:719  balances[msg.sender] = 0 */\n      dup2\n      swap1\n      sstore\n      pop\n        /* \"DepositFunds.sol\":509:727  {... */\n      pop\n      pop\n        /* \"DepositFunds.sol\":356:361  false */\n      0x00\n        /* \"DepositFunds.sol\":347:353  locked */\n      0x01\n      0x00\n        /* \"DepositFunds.sol\":347:361  locked = false */\n      0x0100\n      exp\n      dup2\n      sload\n      dup2\n      0xff\n      mul\n      not\n      and\n      swap1\n      dup4\n      iszero\n      iszero\n      mul\n      or\n      swap1\n      sstore\n      pop\n        /* \"DepositFunds.sol\":471:727  function withdraw() public noReentrant{... */\n      jump\t// out\n        /* \"DepositFunds.sol\":377:463  function deposit() public payable {... */\n    tag_21:\n        /* \"DepositFunds.sol\":446:455  msg.value */\n      callvalue\n        /* \"DepositFunds.sol\":422:430  balances */\n      0x00\n        /* \"DepositFunds.sol\":422:442  balances[msg.sender] */\n      dup1\n        /* \"DepositFunds.sol\":431:441  msg.sender */\n      caller\n        /* \"DepositFunds.sol\":422:442  balances[msg.sender] */\n      0xffffffffffffffffffffffffffffffffffffffff\n      and\n      0xffffffffffffffffffffffffffffffffffffffff\n      and\n      dup2\n      mstore\n      0x20\n      add\n      swap1\n      dup2\n      mstore\n      0x20\n      add\n      0x00\n      keccak256\n      0x00\n        /* \"DepositFunds.sol\":422:455  balances[msg.sender] += msg.value */\n      dup3\n      dup3\n      sload\n      tag_38\n      swap2\n      swap1\n      tag_39\n      jump\t// in\n    tag_38:\n      swap3\n      pop\n      pop\n      dup2\n      swap1\n      sstore\n      pop\n        /* \"DepositFunds.sol\":377:463  function deposit() public payable {... */\n      jump\t// out\n        /* \"#utility.yul\":7:84   */\n    tag_40:\n        /* \"#utility.yul\":44:51   */\n      0x00\n        /* \"#utility.yul\":73:78   */\n      dup2\n        /* \"#utility.yul\":62:78   */\n      swap1\n      pop\n        /* \"#utility.yul\":7:84   */\n      swap2\n      swap1\n      pop\n      jump\t// out\n        /* \"#utility.yul\":90:208   */\n    tag_41:\n        /* \"#utility.yul\":177:201   */\n      tag_61\n        /* \"#utility.yul\":195:200   */\n      dup2\n        /* \"#utility.yul\":177:201   */\n      tag_40\n      jump\t// in\n    tag_61:\n        /* \"#utility.yul\":172:175   */\n      dup3\n        /* \"#utility.yul\":165:202   */\n      mstore\n        /* \"#utility.yul\":90:208   */\n      pop\n      pop\n      jump\t// out\n        /* \"#utility.yul\":214:436   */\n    tag_10:\n        /* \"#utility.yul\":307:311   */\n      0x00\n        /* \"#utility.yul\":345:347   */\n      0x20\n        /* \"#utility.yul\":334:343   */\n      dup3\n        /* \"#utility.yul\":330:348   */\n      add\n        /* \"#utility.yul\":322:348   */\n      swap1\n      pop\n        /* \"#utility.yul\":358:429   */\n      tag_63\n        /* \"#utility.yul\":426:427   */\n      0x00\n        /* \"#utility.yul\":415:424   */\n      dup4\n        /* \"#utility.yul\":411:428   */\n      add\n        /* \"#utility.yul\":402:408   */\n      dup5\n        /* \"#utility.yul\":358:429   */\n      tag_41\n      jump\t// in\n    tag_63:\n        /* \"#utility.yul\":214:436   */\n      swap3\n      swap2\n      pop\n      pop\n      jump\t// out\n        /* \"#utility.yul\":523:640   */\n    tag_43:\n        /* \"#utility.yul\":632:633   */\n      0x00\n        /* \"#utility.yul\":629:630   */\n      dup1\n        /* \"#utility.yul\":622:634   */\n      revert\n        /* \"#utility.yul\":769:895   */\n    tag_45:\n        /* \"#utility.yul\":806:813   */\n      0x00\n        /* \"#utility.yul\":846:888   */\n      0xffffffffffffffffffffffffffffffffffffffff\n        /* \"#utility.yul\":839:844   */\n      dup3\n        /* \"#utility.yul\":835:889   */\n      and\n        /* \"#utility.yul\":824:889   */\n      swap1\n      pop\n        /* \"#utility.yul\":769:895   */\n      swap2\n      swap1\n      pop\n      jump\t// out\n        /* \"#utility.yul\":901:997   */\n    tag_46:\n        /* \"#utility.yul\":938:945   */\n      0x00\n        /* \"#utility.yul\":967:991   */\n      tag_69\n        /* \"#utility.yul\":985:990   */\n      dup3\n        /* \"#utility.yul\":967:991   */\n      tag_45\n      jump\t// in\n    tag_69:\n        /* \"#utility.yul\":956:991   */\n      swap1\n      pop\n        /* \"#utility.yul\":901:997   */\n      swap2\n      swap1\n      pop\n      jump\t// out\n        /* \"#utility.yul\":1003:1125   */\n    tag_47:\n        /* \"#utility.yul\":1076:1100   */\n      tag_71\n        /* \"#utility.yul\":1094:1099   */\n      dup2\n        /* \"#utility.yul\":1076:1100   */\n      tag_46\n      jump\t// in\n    tag_71:\n        /* \"#utility.yul\":1069:1074   */\n      dup2\n        /* \"#utility.yul\":1066:1101   */\n      eq\n        /* \"#utility.yul\":1056:1119   */\n      tag_72\n      jumpi\n        /* \"#utility.yul\":1115:1116   */\n      0x00\n        /* \"#utility.yul\":1112:1113   */\n      dup1\n        /* \"#utility.yul\":1105:1117   */\n      revert\n        /* \"#utility.yul\":1056:1119   */\n    tag_72:\n        /* \"#utility.yul\":1003:1125   */\n      pop\n      jump\t// out\n        /* \"#utility.yul\":1131:1270   */\n    tag_48:\n        /* \"#utility.yul\":1177:1182   */\n      0x00\n        /* \"#utility.yul\":1215:1221   */\n      dup2\n        /* \"#utility.yul\":1202:1222   */\n      calldataload\n        /* \"#utility.yul\":1193:1222   */\n      swap1\n      pop\n        /* \"#utility.yul\":1231:1264   */\n      tag_74\n        /* \"#utility.yul\":1258:1263   */\n      dup2\n        /* \"#utility.yul\":1231:1264   */\n      tag_47\n      jump\t// in\n    tag_74:\n        /* \"#utility.yul\":1131:1270   */\n      swap3\n      swap2\n      pop\n      pop\n      jump\t// out\n        /* \"#utility.yul\":1276:1605   */\n    tag_14:\n        /* \"#utility.yul\":1335:1341   */\n      0x00\n        /* \"#utility.yul\":1384:1386   */\n      0x20\n        /* \"#utility.yul\":1372:1381   */\n      dup3\n        /* \"#utility.yul\":1363:1370   */\n      dup5\n        /* \"#utility.yul\":1359:1382   */\n      sub\n        /* \"#utility.yul\":1355:1387   */\n      slt\n        /* \"#utility.yul\":1352:1471   */\n      iszero\n      tag_76\n      jumpi\n        /* \"#utility.yul\":1390:1469   */\n      tag_77\n      tag_43\n      jump\t// in\n    tag_77:\n        /* \"#utility.yul\":1352:1471   */\n    tag_76:\n        /* \"#utility.yul\":1510:1511   */\n      0x00\n        /* \"#utility.yul\":1535:1588   */\n      tag_78\n        /* \"#utility.yul\":1580:1587   */\n      dup5\n        /* \"#utility.yul\":1571:1577   */\n      dup3\n        /* \"#utility.yul\":1560:1569   */\n      dup6\n        /* \"#utility.yul\":1556:1578   */\n      add\n        /* \"#utility.yul\":1535:1588   */\n      tag_48\n      jump\t// in\n    tag_78:\n        /* \"#utility.yul\":1525:1588   */\n      swap2\n      pop\n        /* \"#utility.yul\":1481:1598   */\n      pop\n        /* \"#utility.yul\":1276:1605   */\n      swap3\n      swap2\n      pop\n      pop\n      jump\t// out\n        /* \"#utility.yul\":1611:1780   */\n    tag_49:\n        /* \"#utility.yul\":1695:1706   */\n      0x00\n        /* \"#utility.yul\":1729:1735   */\n      dup3\n        /* \"#utility.yul\":1724:1727   */\n      dup3\n        /* \"#utility.yul\":1717:1736   */\n      mstore\n        /* \"#utility.yul\":1769:1773   */\n      0x20\n        /* \"#utility.yul\":1764:1767   */\n      dup3\n        /* \"#utility.yul\":1760:1774   */\n      add\n        /* \"#utility.yul\":1745:1774   */\n      swap1\n      pop\n        /* \"#utility.yul\":1611:1780   */\n      swap3\n      swap2\n      pop\n      pop\n      jump\t// out\n        /* \"#utility.yul\":1786:1950   */\n    tag_50:\n        /* \"#utility.yul\":1926:1942   */\n      0x4e6f2072652d656e7472616e6379000000000000000000000000000000000000\n        /* \"#utility.yul\":1922:1923   */\n      0x00\n        /* \"#utility.yul\":1914:1920   */\n      dup3\n        /* \"#utility.yul\":1910:1924   */\n      add\n        /* \"#utility.yul\":1903:1943   */\n      mstore\n        /* \"#utility.yul\":1786:1950   */\n      pop\n      jump\t// out\n        /* \"#utility.yul\":1956:2322   */\n    tag_51:\n        /* \"#utility.yul\":2098:2101   */\n      0x00\n        /* \"#utility.yul\":2119:2186   */\n      tag_82\n        /* \"#utility.yul\":2183:2185   */\n      0x0e\n        /* \"#utility.yul\":2178:2181   */\n      dup4\n        /* \"#utility.yul\":2119:2186   */\n      tag_49\n      jump\t// in\n    tag_82:\n        /* \"#utility.yul\":2112:2186   */\n      swap2\n      pop\n        /* \"#utility.yul\":2195:2288   */\n      tag_83\n        /* \"#utility.yul\":2284:2287   */\n      dup3\n        /* \"#utility.yul\":2195:2288   */\n      tag_50\n      jump\t// in\n    tag_83:\n        /* \"#utility.yul\":2313:2315   */\n      0x20\n        /* \"#utility.yul\":2308:2311   */\n      dup3\n        /* \"#utility.yul\":2304:2316   */\n      add\n        /* \"#utility.yul\":2297:2316   */\n      swap1\n      pop\n        /* \"#utility.yul\":1956:2322   */\n      swap2\n      swap1\n      pop\n      jump\t// out\n        /* \"#utility.yul\":2328:2747   */\n    tag_26:\n        /* \"#utility.yul\":2494:2498   */\n      0x00\n        /* \"#utility.yul\":2532:2534   */\n      0x20\n        /* \"#utility.yul\":2521:2530   */\n      dup3\n        /* \"#utility.yul\":2517:2535   */\n      add\n        /* \"#utility.yul\":2509:2535   */\n      swap1\n      pop\n        /* \"#utility.yul\":2581:2590   */\n      dup2\n        /* \"#utility.yul\":2575:2579   */\n      dup2\n        /* \"#utility.yul\":2571:2591   */\n      sub\n        /* \"#utility.yul\":2567:2568   */\n      0x00\n        /* \"#utility.yul\":2556:2565   */\n      dup4\n        /* \"#utility.yul\":2552:2569   */\n      add\n        /* \"#utility.yul\":2545:2592   */\n      mstore\n        /* \"#utility.yul\":2609:2740   */\n      tag_85\n        /* \"#utility.yul\":2735:2739   */\n      dup2\n        /* \"#utility.yul\":2609:2740   */\n      tag_51\n      jump\t// in\n    tag_85:\n        /* \"#utility.yul\":2601:2740   */\n      swap1\n      pop\n        /* \"#utility.yul\":2328:2747   */\n      swap2\n      swap1\n      pop\n      jump\t// out\n        /* \"#utility.yul\":2753:2900   */\n    tag_52:\n        /* \"#utility.yul\":2854:2865   */\n      0x00\n        /* \"#utility.yul\":2891:2894   */\n      dup2\n        /* \"#utility.yul\":2876:2894   */\n      swap1\n      pop\n        /* \"#utility.yul\":2753:2900   */\n      swap3\n      swap2\n      pop\n      pop\n      jump\t// out\n        /* \"#utility.yul\":2906:3020   */\n    tag_53:\n      pop\n      jump\t// out\n        /* \"#utility.yul\":3026:3424   */\n    tag_54:\n        /* \"#utility.yul\":3185:3188   */\n      0x00\n        /* \"#utility.yul\":3206:3289   */\n      tag_89\n        /* \"#utility.yul\":3287:3288   */\n      0x00\n        /* \"#utility.yul\":3282:3285   */\n      dup4\n        /* \"#utility.yul\":3206:3289   */\n      tag_52\n      jump\t// in\n    tag_89:\n        /* \"#utility.yul\":3199:3289   */\n      swap2\n      pop\n        /* \"#utility.yul\":3298:3391   */\n      tag_90\n        /* \"#utility.yul\":3387:3390   */\n      dup3\n        /* \"#utility.yul\":3298:3391   */\n      tag_53\n      jump\t// in\n    tag_90:\n        /* \"#utility.yul\":3416:3417   */\n      0x00\n        /* \"#utility.yul\":3411:3414   */\n      dup3\n        /* \"#utility.yul\":3407:3418   */\n      add\n        /* \"#utility.yul\":3400:3418   */\n      swap1\n      pop\n        /* \"#utility.yul\":3026:3424   */\n      swap2\n      swap1\n      pop\n      jump\t// out\n        /* \"#utility.yul\":3430:3809   */\n    tag_30:\n        /* \"#utility.yul\":3614:3617   */\n      0x00\n        /* \"#utility.yul\":3636:3783   */\n      tag_92\n        /* \"#utility.yul\":3779:3782   */\n      dup3\n        /* \"#utility.yul\":3636:3783   */\n      tag_54\n      jump\t// in\n    tag_92:\n        /* \"#utility.yul\":3629:3783   */\n      swap2\n      pop\n        /* \"#utility.yul\":3800:3803   */\n      dup2\n        /* \"#utility.yul\":3793:3803   */\n      swap1\n      pop\n        /* \"#utility.yul\":3430:3809   */\n      swap2\n      swap1\n      pop\n      jump\t// out\n        /* \"#utility.yul\":3815:3985   */\n    tag_55:\n        /* \"#utility.yul\":3955:3977   */\n      0x4661696c656420746f2073656e64204574686572000000000000000000000000\n        /* \"#utility.yul\":3951:3952   */\n      0x00\n        /* \"#utility.yul\":3943:3949   */\n      dup3\n        /* \"#utility.yul\":3939:3953   */\n      add\n        /* \"#utility.yul\":3932:3978   */\n      mstore\n        /* \"#utility.yul\":3815:3985   */\n      pop\n      jump\t// out\n        /* \"#utility.yul\":3991:4357   */\n    tag_56:\n        /* \"#utility.yul\":4133:4136   */\n      0x00\n        /* \"#utility.yul\":4154:4221   */\n      tag_95\n        /* \"#utility.yul\":4218:4220   */\n      0x14\n        /* \"#utility.yul\":4213:4216   */\n      dup4\n        /* \"#utility.yul\":4154:4221   */\n      tag_49\n      jump\t// in\n    tag_95:\n        /* \"#utility.yul\":4147:4221   */\n      swap2\n      pop\n        /* \"#utility.yul\":4230:4323   */\n      tag_96\n        /* \"#utility.yul\":4319:4322   */\n      dup3\n        /* \"#utility.yul\":4230:4323   */\n      tag_55\n      jump\t// in\n    tag_96:\n        /* \"#utility.yul\":4348:4350   */\n      0x20\n        /* \"#utility.yul\":4343:4346   */\n      dup3\n        /* \"#utility.yul\":4339:4351   */\n      add\n        /* \"#utility.yul\":4332:4351   */\n      swap1\n      pop\n        /* \"#utility.yul\":3991:4357   */\n      swap2\n      swap1\n      pop\n      jump\t// out\n        /* \"#utility.yul\":4363:4782   */\n    tag_36:\n        /* \"#utility.yul\":4529:4533   */\n      0x00\n        /* \"#utility.yul\":4567:4569   */\n      0x20\n        /* \"#utility.yul\":4556:4565   */\n      dup3\n        /* \"#utility.yul\":4552:4570   */\n      add\n        /* \"#utility.yul\":4544:4570   */\n      swap1\n      pop\n        /* \"#utility.yul\":4616:4625   */\n      dup2\n        /* \"#utility.yul\":4610:4614   */\n      dup2\n        /* \"#utility.yul\":4606:4626   */\n      sub\n        /* \"#utility.yul\":4602:4603   */\n      0x00\n        /* \"#utility.yul\":4591:4600   */\n      dup4\n        /* \"#utility.yul\":4587:4604   */\n      add\n        /* \"#utility.yul\":4580:4627   */\n      mstore\n        /* \"#utility.yul\":4644:4775   */\n      tag_98\n        /* \"#utility.yul\":4770:4774   */\n      dup2\n        /* \"#utility.yul\":4644:4775   */\n      tag_56\n      jump\t// in\n    tag_98:\n        /* \"#utility.yul\":4636:4775   */\n      swap1\n      pop\n        /* \"#utility.yul\":4363:4782   */\n      swap2\n      swap1\n      pop\n      jump\t// out\n        /* \"#utility.yul\":4788:4968   */\n    tag_57:\n        /* \"#utility.yul\":4836:4913   */\n      0x4e487b7100000000000000000000000000000000000000000000000000000000\n        /* \"#utility.yul\":4833:4834   */\n      0x00\n        /* \"#utility.yul\":4826:4914   */\n      mstore\n        /* \"#utility.yul\":4933:4937   */\n      0x11\n        /* \"#utility.yul\":4930:4931   */\n      0x04\n        /* \"#utility.yul\":4923:4938   */\n      mstore\n        /* \"#utility.yul\":4957:4961   */\n      0x24\n        /* \"#utility.yul\":4954:4955   */\n      0x00\n        /* \"#utility.yul\":4947:4962   */\n      revert\n        /* \"#utility.yul\":4974:5165   */\n    tag_39:\n        /* \"#utility.yul\":5014:5017   */\n      0x00\n        /* \"#utility.yul\":5033:5053   */\n      tag_101\n        /* \"#utility.yul\":5051:5052   */\n      dup3\n        /* \"#utility.yul\":5033:5053   */\n      tag_40\n      jump\t// in\n    tag_101:\n        /* \"#utility.yul\":5028:5053   */\n      swap2\n      pop\n        /* \"#utility.yul\":5067:5087   */\n      tag_102\n        /* \"#utility.yul\":5085:5086   */\n      dup4\n        /* \"#utility.yul\":5067:5087   */\n      tag_40\n      jump\t// in\n    tag_102:\n        /* \"#utility.yul\":5062:5087   */\n      swap3\n      pop\n        /* \"#utility.yul\":5110:5111   */\n      dup3\n        /* \"#utility.yul\":5107:5108   */\n      dup3\n        /* \"#utility.yul\":5103:5112   */\n      add\n        /* \"#utility.yul\":5096:5112   */\n      swap1\n      pop\n        /* \"#utility.yul\":5131:5134   */\n      dup1\n        /* \"#utility.yul\":5128:5129   */\n      dup3\n        /* \"#utility.yul\":5125:5135   */\n      gt\n        /* \"#utility.yul\":5122:5158   */\n      iszero\n      tag_103\n      jumpi\n        /* \"#utility.yul\":5138:5156   */\n      tag_104\n      tag_57\n      jump\t// in\n    tag_104:\n        /* \"#utility.yul\":5122:5158   */\n    tag_103:\n        /* \"#utility.yul\":4974:5165   */\n      swap3\n      swap2\n      pop\n      pop\n      jump\t// out\n\n    auxdata: 0xa26469706673582212208d04002fb021cb6ce2eab7792275f20913373a4633578ac11635fce4add6644b64736f6c63430008180033\n}\n",
				"bytecode": {
					"linkReferences": {},
					"object": "608060405234801561000f575f80fd5b506105618061001d5f395ff3fe60806040526004361061003e575f3560e01c806312065fe01461004257806327e235e31461006c5780633ccfd60b146100a8578063d0e30db0146100be575b5f80fd5b34801561004d575f80fd5b506100566100c8565b6040516100639190610308565b60405180910390f35b348015610077575f80fd5b50610092600480360381019061008d919061037f565b6100cf565b60405161009f9190610308565b60405180910390f35b3480156100b3575f80fd5b506100bc6100e3565b005b6100c661029c565b005b5f47905090565b5f602052805f5260405f205f915090505481565b60015f9054906101000a900460ff1615610132576040517f08c379a000000000000000000000000000000000000000000000000000000000815260040161012990610404565b60405180910390fd5b6001805f6101000a81548160ff0219169083151502179055505f805f3373ffffffffffffffffffffffffffffffffffffffff1673ffffffffffffffffffffffffffffffffffffffff1681526020019081526020015f205490505f8111610196575f80fd5b5f3373ffffffffffffffffffffffffffffffffffffffff16826040516101bb9061044f565b5f6040518083038185875af1925050503d805f81146101f5576040519150601f19603f3d011682016040523d82523d5f602084013e6101fa565b606091505b505090508061023e576040517f08c379a0000000000000000000000000000000000000000000000000000000008152600401610235906104ad565b60405180910390fd5b5f805f3373ffffffffffffffffffffffffffffffffffffffff1673ffffffffffffffffffffffffffffffffffffffff1681526020019081526020015f208190555050505f60015f6101000a81548160ff021916908315150217905550565b345f803373ffffffffffffffffffffffffffffffffffffffff1673ffffffffffffffffffffffffffffffffffffffff1681526020019081526020015f205f8282546102e791906104f8565b92505081905550565b5f819050919050565b610302816102f0565b82525050565b5f60208201905061031b5f8301846102f9565b92915050565b5f80fd5b5f73ffffffffffffffffffffffffffffffffffffffff82169050919050565b5f61034e82610325565b9050919050565b61035e81610344565b8114610368575f80fd5b50565b5f8135905061037981610355565b92915050565b5f6020828403121561039457610393610321565b5b5f6103a18482850161036b565b91505092915050565b5f82825260208201905092915050565b7f4e6f2072652d656e7472616e63790000000000000000000000000000000000005f82015250565b5f6103ee600e836103aa565b91506103f9826103ba565b602082019050919050565b5f6020820190508181035f83015261041b816103e2565b9050919050565b5f81905092915050565b50565b5f61043a5f83610422565b91506104458261042c565b5f82019050919050565b5f6104598261042f565b9150819050919050565b7f4661696c656420746f2073656e642045746865720000000000000000000000005f82015250565b5f6104976014836103aa565b91506104a282610463565b602082019050919050565b5f6020820190508181035f8301526104c48161048b565b9050919050565b7f4e487b71000000000000000000000000000000000000000000000000000000005f52601160045260245ffd5b5f610502826102f0565b915061050d836102f0565b9250828201905080821115610525576105246104cb565b5b9291505056fea26469706673582212208d04002fb021cb6ce2eab7792275f20913373a4633578ac11635fce4add6644b64736f6c63430008180033",
					"opcodes": "PUSH1 0x80 PUSH1 0x40 MSTORE CALLVALUE DUP1 ISZERO PUSH2 0xF JUMPI PUSH0 DUP1 REVERT JUMPDEST POP PUSH2 0x561 DUP1 PUSH2 0x1D PUSH0 CODECOPY PUSH0 RETURN INVALID PUSH1 0x80 PUSH1 0x40 MSTORE PUSH1 0x4 CALLDATASIZE LT PUSH2 0x3E JUMPI PUSH0 CALLDATALOAD PUSH1 0xE0 SHR DUP1 PUSH4 0x12065FE0 EQ PUSH2 0x42 JUMPI DUP1 PUSH4 0x27E235E3 EQ PUSH2 0x6C JUMPI DUP1 PUSH4 0x3CCFD60B EQ PUSH2 0xA8 JUMPI DUP1 PUSH4 0xD0E30DB0 EQ PUSH2 0xBE JUMPI JUMPDEST PUSH0 DUP1 REVERT JUMPDEST CALLVALUE DUP1 ISZERO PUSH2 0x4D JUMPI PUSH0 DUP1 REVERT JUMPDEST POP PUSH2 0x56 PUSH2 0xC8 JUMP JUMPDEST PUSH1 0x40 MLOAD PUSH2 0x63 SWAP2 SWAP1 PUSH2 0x308 JUMP JUMPDEST PUSH1 0x40 MLOAD DUP1 SWAP2 SUB SWAP1 RETURN JUMPDEST CALLVALUE DUP1 ISZERO PUSH2 0x77 JUMPI PUSH0 DUP1 REVERT JUMPDEST POP PUSH2 0x92 PUSH1 0x4 DUP1 CALLDATASIZE SUB DUP2 ADD SWAP1 PUSH2 0x8D SWAP2 SWAP1 PUSH2 0x37F JUMP JUMPDEST PUSH2 0xCF JUMP JUMPDEST PUSH1 0x40 MLOAD PUSH2 0x9F SWAP2 SWAP1 PUSH2 0x308 JUMP JUMPDEST PUSH1 0x40 MLOAD DUP1 SWAP2 SUB SWAP1 RETURN JUMPDEST CALLVALUE DUP1 ISZERO PUSH2 0xB3 JUMPI PUSH0 DUP1 REVERT JUMPDEST POP PUSH2 0xBC PUSH2 0xE3 JUMP JUMPDEST STOP JUMPDEST PUSH2 0xC6 PUSH2 0x29C JUMP JUMPDEST STOP JUMPDEST PUSH0 SELFBALANCE SWAP1 POP SWAP1 JUMP JUMPDEST PUSH0 PUSH1 0x20 MSTORE DUP1 PUSH0 MSTORE PUSH1 0x40 PUSH0 KECCAK256 PUSH0 SWAP2 POP SWAP1 POP SLOAD DUP2 JUMP JUMPDEST PUSH1 0x1 PUSH0 SWAP1 SLOAD SWAP1 PUSH2 0x100 EXP SWAP1 DIV PUSH1 0xFF AND ISZERO PUSH2 0x132 JUMPI PUSH1 0x40 MLOAD PUSH32 0x8C379A000000000000000000000000000000000000000000000000000000000 DUP2 MSTORE PUSH1 0x4 ADD PUSH2 0x129 SWAP1 PUSH2 0x404 JUMP JUMPDEST PUSH1 0x40 MLOAD DUP1 SWAP2 SUB SWAP1 REVERT JUMPDEST PUSH1 0x1 DUP1 PUSH0 PUSH2 0x100 EXP DUP2 SLOAD DUP2 PUSH1 0xFF MUL NOT AND SWAP1 DUP4 ISZERO ISZERO MUL OR SWAP1 SSTORE POP PUSH0 DUP1 PUSH0 CALLER PUSH20 0xFFFFFFFFFFFFFFFFFFFFFFFFFFFFFFFFFFFFFFFF AND PUSH20 0xFFFFFFFFFFFFFFFFFFFFFFFFFFFFFFFFFFFFFFFF AND DUP2 MSTORE PUSH1 0x20 ADD SWAP1 DUP2 MSTORE PUSH1 0x20 ADD PUSH0 KECCAK256 SLOAD SWAP1 POP PUSH0 DUP2 GT PUSH2 0x196 JUMPI PUSH0 DUP1 REVERT JUMPDEST PUSH0 CALLER PUSH20 0xFFFFFFFFFFFFFFFFFFFFFFFFFFFFFFFFFFFFFFFF AND DUP3 PUSH1 0x40 MLOAD PUSH2 0x1BB SWAP1 PUSH2 0x44F JUMP JUMPDEST PUSH0 PUSH1 0x40 MLOAD DUP1 DUP4 SUB DUP2 DUP6 DUP8 GAS CALL SWAP3 POP POP POP RETURNDATASIZE DUP1 PUSH0 DUP2 EQ PUSH2 0x1F5 JUMPI PUSH1 0x40 MLOAD SWAP2 POP PUSH1 0x1F NOT PUSH1 0x3F RETURNDATASIZE ADD AND DUP3 ADD PUSH1 0x40 MSTORE RETURNDATASIZE DUP3 MSTORE RETURNDATASIZE PUSH0 PUSH1 0x20 DUP5 ADD RETURNDATACOPY PUSH2 0x1FA JUMP JUMPDEST PUSH1 0x60 SWAP2 POP JUMPDEST POP POP SWAP1 POP DUP1 PUSH2 0x23E JUMPI PUSH1 0x40 MLOAD PUSH32 0x8C379A000000000000000000000000000000000000000000000000000000000 DUP2 MSTORE PUSH1 0x4 ADD PUSH2 0x235 SWAP1 PUSH2 0x4AD JUMP JUMPDEST PUSH1 0x40 MLOAD DUP1 SWAP2 SUB SWAP1 REVERT JUMPDEST PUSH0 DUP1 PUSH0 CALLER PUSH20 0xFFFFFFFFFFFFFFFFFFFFFFFFFFFFFFFFFFFFFFFF AND PUSH20 0xFFFFFFFFFFFFFFFFFFFFFFFFFFFFFFFFFFFFFFFF AND DUP2 MSTORE PUSH1 0x20 ADD SWAP1 DUP2 MSTORE PUSH1 0x20 ADD PUSH0 KECCAK256 DUP2 SWAP1 SSTORE POP POP POP PUSH0 PUSH1 0x1 PUSH0 PUSH2 0x100 EXP DUP2 SLOAD DUP2 PUSH1 0xFF MUL NOT AND SWAP1 DUP4 ISZERO ISZERO MUL OR SWAP1 SSTORE POP JUMP JUMPDEST CALLVALUE PUSH0 DUP1 CALLER PUSH20 0xFFFFFFFFFFFFFFFFFFFFFFFFFFFFFFFFFFFFFFFF AND PUSH20 0xFFFFFFFFFFFFFFFFFFFFFFFFFFFFFFFFFFFFFFFF AND DUP2 MSTORE PUSH1 0x20 ADD SWAP1 DUP2 MSTORE PUSH1 0x20 ADD PUSH0 KECCAK256 PUSH0 DUP3 DUP3 SLOAD PUSH2 0x2E7 SWAP2 SWAP1 PUSH2 0x4F8 JUMP JUMPDEST SWAP3 POP POP DUP2 SWAP1 SSTORE POP JUMP JUMPDEST PUSH0 DUP2 SWAP1 POP SWAP2 SWAP1 POP JUMP JUMPDEST PUSH2 0x302 DUP2 PUSH2 0x2F0 JUMP JUMPDEST DUP3 MSTORE POP POP JUMP JUMPDEST PUSH0 PUSH1 0x20 DUP3 ADD SWAP1 POP PUSH2 0x31B PUSH0 DUP4 ADD DUP5 PUSH2 0x2F9 JUMP JUMPDEST SWAP3 SWAP2 POP POP JUMP JUMPDEST PUSH0 DUP1 REVERT JUMPDEST PUSH0 PUSH20 0xFFFFFFFFFFFFFFFFFFFFFFFFFFFFFFFFFFFFFFFF DUP3 AND SWAP1 POP SWAP2 SWAP1 POP JUMP JUMPDEST PUSH0 PUSH2 0x34E DUP3 PUSH2 0x325 JUMP JUMPDEST SWAP1 POP SWAP2 SWAP1 POP JUMP JUMPDEST PUSH2 0x35E DUP2 PUSH2 0x344 JUMP JUMPDEST DUP2 EQ PUSH2 0x368 JUMPI PUSH0 DUP1 REVERT JUMPDEST POP JUMP JUMPDEST PUSH0 DUP2 CALLDATALOAD SWAP1 POP PUSH2 0x379 DUP2 PUSH2 0x355 JUMP JUMPDEST SWAP3 SWAP2 POP POP JUMP JUMPDEST PUSH0 PUSH1 0x20 DUP3 DUP5 SUB SLT ISZERO PUSH2 0x394 JUMPI PUSH2 0x393 PUSH2 0x321 JUMP JUMPDEST JUMPDEST PUSH0 PUSH2 0x3A1 DUP5 DUP3 DUP6 ADD PUSH2 0x36B JUMP JUMPDEST SWAP2 POP POP SWAP3 SWAP2 POP POP JUMP JUMPDEST PUSH0 DUP3 DUP3 MSTORE PUSH1 0x20 DUP3 ADD SWAP1 POP SWAP3 SWAP2 POP POP JUMP JUMPDEST PUSH32 0x4E6F2072652D656E7472616E6379000000000000000000000000000000000000 PUSH0 DUP3 ADD MSTORE POP JUMP JUMPDEST PUSH0 PUSH2 0x3EE PUSH1 0xE DUP4 PUSH2 0x3AA JUMP JUMPDEST SWAP2 POP PUSH2 0x3F9 DUP3 PUSH2 0x3BA JUMP JUMPDEST PUSH1 0x20 DUP3 ADD SWAP1 POP SWAP2 SWAP1 POP JUMP JUMPDEST PUSH0 PUSH1 0x20 DUP3 ADD SWAP1 POP DUP2 DUP2 SUB PUSH0 DUP4 ADD MSTORE PUSH2 0x41B DUP2 PUSH2 0x3E2 JUMP JUMPDEST SWAP1 POP SWAP2 SWAP1 POP JUMP JUMPDEST PUSH0 DUP2 SWAP1 POP SWAP3 SWAP2 POP POP JUMP JUMPDEST POP JUMP JUMPDEST PUSH0 PUSH2 0x43A PUSH0 DUP4 PUSH2 0x422 JUMP JUMPDEST SWAP2 POP PUSH2 0x445 DUP3 PUSH2 0x42C JUMP JUMPDEST PUSH0 DUP3 ADD SWAP1 POP SWAP2 SWAP1 POP JUMP JUMPDEST PUSH0 PUSH2 0x459 DUP3 PUSH2 0x42F JUMP JUMPDEST SWAP2 POP DUP2 SWAP1 POP SWAP2 SWAP1 POP JUMP JUMPDEST PUSH32 0x4661696C656420746F2073656E64204574686572000000000000000000000000 PUSH0 DUP3 ADD MSTORE POP JUMP JUMPDEST PUSH0 PUSH2 0x497 PUSH1 0x14 DUP4 PUSH2 0x3AA JUMP JUMPDEST SWAP2 POP PUSH2 0x4A2 DUP3 PUSH2 0x463 JUMP JUMPDEST PUSH1 0x20 DUP3 ADD SWAP1 POP SWAP2 SWAP1 POP JUMP JUMPDEST PUSH0 PUSH1 0x20 DUP3 ADD SWAP1 POP DUP2 DUP2 SUB PUSH0 DUP4 ADD MSTORE PUSH2 0x4C4 DUP2 PUSH2 0x48B JUMP JUMPDEST SWAP1 POP SWAP2 SWAP1 POP JUMP JUMPDEST PUSH32 0x4E487B7100000000000000000000000000000000000000000000000000000000 PUSH0 MSTORE PUSH1 0x11 PUSH1 0x4 MSTORE PUSH1 0x24 PUSH0 REVERT JUMPDEST PUSH0 PUSH2 0x502 DUP3 PUSH2 0x2F0 JUMP JUMPDEST SWAP2 POP PUSH2 0x50D DUP4 PUSH2 0x2F0 JUMP JUMPDEST SWAP3 POP DUP3 DUP3 ADD SWAP1 POP DUP1 DUP3 GT ISZERO PUSH2 0x525 JUMPI PUSH2 0x524 PUSH2 0x4CB JUMP JUMPDEST JUMPDEST SWAP3 SWAP2 POP POP JUMP INVALID LOG2 PUSH5 0x6970667358 0x22 SLT KECCAK256 DUP14 DIV STOP 0x2F 0xB0 0x21 0xCB PUSH13 0xE2EAB7792275F20913373A4633 JUMPI DUP11 0xC1 AND CALLDATALOAD 0xFC 0xE4 0xAD 0xD6 PUSH5 0x4B64736F6C PUSH4 0x43000818 STOP CALLER "
				},
				"gasEstimates": {
					"creation": {
						"codeDepositCost": "275400",
						"executionCost": "316",
						"totalCost": "275716"
					},
					"external": {
						"balances(address)": "2801",
						"deposit()": "infinite",
						"getBalance()": "312",
						"withdraw()": "infinite"
					}
				},
				"methodIdentifiers": {
					"balances(address)": "27e235e3",
					"deposit()": "d0e30db0",
					"getBalance()": "12065fe0",
					"withdraw()": "3ccfd60b"
				}
			},
			"storageLayout": {
				"storage": [
					{
						"astId": 5,
						"contract": "DepositFunds.sol:DepositFunds",
						"label": "balances",
						"offset": 0,
						"slot": "0",
						"type": "t_mapping(t_address,t_uint256)"
					},
					{
						"astId": 7,
						"contract": "DepositFunds.sol:DepositFunds",
						"label": "locked",
						"offset": 0,
						"slot": "1",
						"type": "t_bool"
					}
				],
				"types": {
					"t_address": {
						"encoding": "inplace",
						"label": "address",
						"numberOfBytes": "20"
					},
					"t_bool": {
						"encoding": "inplace",
						"label": "bool",
						"numberOfBytes": "1"
					},
					"t_mapping(t_address,t_uint256)": {
						"encoding": "mapping",
						"key": "t_address",
						"label": "mapping(address => uint256)",
						"numberOfBytes": "32",
						"value": "t_uint256"
					},
					"t_uint256": {
						"encoding": "inplace",
						"label": "uint256",
						"numberOfBytes": "32"
					}
				}
			},
			"userdoc": {
				"kind": "user",
				"methods": {},
				"version": 1
			}
		}
	}
}